:020000040800F2
:1000000000200020FD0B0008A10B0008A50B000834
:1000100000000000000000000000000000000000E0
:10002000000000000000000000000000A90B000814
:100030000000000000000000AD0B0008B10B00083C
:100040004D0C0008000000004D0C00084D0C00088D
:100050004D0C00084D0C00084D0C00084D0C00081C
:10006000000000004D0C00084D0C00084D0C00086D
:100070004D0C00084D0C00084D0C0008000000005D
:100080004D0C000800000000000000004D0C0008AE
:1000900000000000B90B0008C90B00084D0C000857
:1000A0004D0C00084D0C00084D0C00084D0C0008CC
:0800B0004D0C000800000000E7
:1000B80010B5064C2378002B07D1054B002B02D036
:1000C800044800E000BF0123237010BD0C0000208D
:1000D800000000007C250008044B10B5002B03D05D
:1000E8000349044800E000BF10BDC04600000000FE
:1000F800100000207C250008002243088B4274D39E
:1001080003098B425FD3030A8B4244D3030B8B4210
:1001180028D3030C8B420DD3FF22090212BA030C19
:100128008B4202D31212090265D0030B8B4219D3FA
:1001380000E0090AC30B8B4201D3CB03C01A52411A
:10014800830B8B4201D38B03C01A5241430B8B4262
:1001580001D34B03C01A5241030B8B4201D30B034B
:10016800C01A5241C30A8B4201D3CB02C01A524172
:10017800830A8B4201D38B02C01A5241430A8B4235
:1001880001D34B02C01A5241030A8B4201D30B021E
:10019800C01A5241CDD2C3098B4201D3CB01C01A38
:1001A800524183098B4201D38B01C01A5241430942
:1001B8008B4201D34B01C01A524103098B4201D330
:1001C8000B01C01A5241C3088B4201D3CB00C01A9D
:1001D800524183088B4201D38B00C01A5241430815
:1001E8008B4201D34B00C01A5241411A00D201463A
:1001F800524110467047FFE701B5002000F006F8AD
:1002080002BDC0460029F7D076E770477047C04660
:10021800F0B5D6464F4646463F4DC0B5854204D058
:10022800E0BCBA46B146A846F0BD802211003B4B5F
:100238001B69194088461A42F2D10021280001F0B2
:10024800E9FB374B64211E68364B726A1F687C6A6B
:10025800F36A24041B041B0C0133240C5C431304B1
:100268001B0CE418A4082000FFF746FF2E4B18606B
:100278002E4B632C13D919682D4A01311960994600
:100288002C4B94469A4612681B68012937D00229DC
:100298002AD190420BD962461060020007E042461C
:1002A8001A60244B224A9A4694461B681268934265
:1002B80010D0984206D200231F4A1360624613608A
:1002C8005246136000230021736228007B6201F00C
:1002D8003DFBA5E7184B1B68934201D01300E8E7E4
:1002E800164B1A601300E4E70329E0D14946444657
:1002F8000C6011490C68A042D9D90860D7E7984228
:10030800D5D9534618609042DCD10B4B1B68834209
:10031800D8D10A4A1360D5E728000020000400500D
:10032800C0000020740000201C01002018010020DB
:100338002401002028010020200100202C01002099
:100348002E4A13681900093914290DD801212C4B9C
:100358001960002111601A682A4B2B491B689B1AE7
:100368005A4253410B60704719001E390F2905D8AE
:100378000221234B196000211160ECE71900413973
:100388000A2905D803211E4B196000211160E2E7F4
:1003980019005A39142905D80421194B196000216C
:1003A8001160D8E719008239142905D80521144BA2
:1003B800196000211160CEE71900AA39142905D85F
:1003C80006210F4B196000211160C4E71900C839D4
:1003D800142906D807210A4B196000231360072245
:1003E800BAE7E63B502B06D80821054B19600023D5
:1003F80013600822B0E7024BADE7C0462C0100208D
:1004080014010020100100200C010020654B1B681E
:10041800012B5AD0022B17D1634A04201360A02263
:100428000121D20591629362906204309062083093
:10043800906210309062603090628020000190627B
:1004480093615A4B19607047032B16D0042B54D074
:10045800052B2BD0062B5DD1534A02211360A02314
:100468000122DB059A62996202319962043199622C
:1004780008319962103199620FE04B4A02211360EA
:10048800A02301220820DB059A6299620231996251
:1004980098620830986220209862802098628020B4
:1004A800000198629961414B1A60CCE73E4A0221EB
:1004B8001360A0230122DB059A62996202319962D6
:1004C8000431996208319962E5E7374A02211360DD
:1004D800A022D20593629162023191620431916245
:1004E8000831916210319162603191628021090175
:1004F800916293612D4A1360A5E72B4A022013608D
:10050800A0220121D2059162906293620433936222
:100518000E308DE7072B12D1234A02211360A02346
:100528000122DB059A62996202319962043199626B
:10053800083199621031996260319962AFE7082BEE
:1005480017D1194A01211360A0220220D205916215
:100558009062023090629362083393621033936220
:100568006033936280231B01936293610F4B196080
:1005780069E7002B00D066E70C4A1360A02301222C
:10058800DB059A6201329A6202329A6204329A62F6
:1005980008329A6210329A6260329A62802212019C
:1005A8009A6250E714010020100100200C0100207D
:1005B80000B593B03422002105A801F0AFFF102246
:1005C8000021684601F0AAFF8020800000F0CAFCE4
:1005D800022305930C930D9306330F9380238022F7
:1005E8009B025200109380234021089200229B0511
:1005F80005A809920A910E92119300F0E3FC0028D5
:1006080001D072B6FEE7072202230092019300226E
:100618000023022168460292039300F075FF002828
:1006280001D072B6FEE713B000BDC046F0B5DE4695
:1006380057464E464546E0B59FB000F02BFBFFF706
:10064800B7FF1422002111A801F068FF0221042736
:1006580001258024B64B80205A6B24020A435A6332
:100668005A6BA0260A400192019A5A6B81463A4376
:100678005A635A6BF6053A400292029A5A6B8846B8
:100688002A435A635B6B10222B400393039BA94BAD
:100698009C629B460B00B5620633B1621E31B7629D
:1006A800B362B262B162B062A3484B4685628246C9
:1006B80080200001B06210A950461093149501F0F3
:1006C80051FE1094002410A95846119512941394C1
:1006D800149401F047FE300010A91095119512945A
:1006E8001394149401F03EFE4346300010A9109371
:1006F800119512941394149401F034FE109710AFCE
:1007080039003000119512941394149401F02AFEC4
:1007180008233900300010931195129413941494FF
:1007280001F020FE10223900300010921195129429
:100738001394149401F016FE202130001091390012
:10074800119512941394149401F00CFE4B46390041
:1007580030001093119512941394149401F002FE32
:10076800390050461095119512941394149401F081
:10077800F9FD802000013900109030001195129485
:100788001394149401F0EEFD1022002108A801F042
:10079800C5FE14220021380001F0C0FE0C22002101
:1007A80004A801F0BBFE654D654B664E28002B6022
:1007B8006C60AC60EE602C616C61AC6100F06CFF49
:1007C800002801D072B6FEE7802309909B010A90A9
:1007D8000B9008A92800089301F01EFB002801D0FF
:1007E80072B6FEE7052260231290149010A9280023
:1007F8001092119301F0C8FB002801D072B6FEE7F1
:1008080020220023069004A928000492059301F0F1
:100818000FFD041E01D072B6FEE70100102208A8E1
:1008280001F07CFE1422210010A801F077FE0C22B2
:10083800210004A801F072FE434F444B38003B608E
:100848007C60BC60FE603C61BC6100F025FF002854
:1008580001D072B6FEE7802338005B0108A908932F
:1008680001F0DAFA002801D072B6FEE7052200236B
:10087800380010A91092119301F086FB002801D0CE
:1008880072B6FEE70490069004A9380001F0D0FC87
:10089800061E01D072B6FEE701001C2208A801F06E
:1008A8003DFE3422310010A801F038FE284C294BB7
:1008B80020002360284BA66063600323E3604B4657
:1008C80026616661A36100F0E7FE002801D072B6D8
:1008D800FEE7200000F0BAFF002801D072B6FEE75C
:1008E80060230020002100220C900D910893200025
:1008F8005C3B08A909930A920B920E9201F0E8F862
:10090800002801D072B6FEE78023002210901190D3
:10091800129013909B0116901C9010A9200014921D
:10092800159301F0B9FC061E18D072B6FEE7C04652
:10093800001002400008005000040050C0000020D1
:10094800002C0140FFFF000074000020000400405C
:100958002800002000440140FFF90000200000F0BA
:10096800F3F83100142210A801F0D8FD80212C4B97
:10097800C9021A6C2B480A431A641B6C0B40C52128
:100988000893089B284B89005A5802405A508022E5
:10099800D2031A6040216A46244B52181380F4236C
:1009A800FF331293224B11009846180011961396A4
:1009B800149601F05DFD434680221B68914613435F
:1009C8004246136001234146126820001A430A6018
:1009D800CA681343CB6000F009FF2000802431006F
:1009E80000F0B4FF280000F0D7FE380000F0D4FE75
:1009F800104D114E2402FFF7A3FCFFF707FD4A46EE
:100A08002B69134202D13368002B02D10B4B9C6235
:100A1800F1E70A2001F06CFD084B9C61EBE7C0464A
:100A280000100240FFFF00FF00E100E0FFF9FFFFB8
:100A380000480140000400500C010020000800504C
:100A480001220A4B82B0196C11431964196C0A40CF
:100A580080210092009ADA6B49050A43DA63DB6B5E
:100A68000B400193019B02B07047C0460010024042
:100A780030B504008DB01422002106A801F04EFD07
:100A880023682C4A934224D02B4A934204D02B4A01
:100A980093420BD00DB030BD0223294AD16B1943C4
:100AA800D163D26B13400493049BF3E78021244B5A
:100AB80089021A6C15200A431A641B6C00220B4029
:100AC80005930021059B00F00BF9152000F032F981
:100AD800E0E7802101250224194B09011A6CA020A6
:100AE8000A431A641A6CC0050A400192019A5A6BAB
:100AF80006A92A435A635A6B2A400292029A5A6BF1
:100B080022435A635B6B802223400393039B022397
:100B18005201069207930A9400F032F908230693CB
:100B28000023084806A90794089309930A9500F03A
:100B380027F9AFE7002C01400004004000440140C1
:100B4800001002400004005010B5040088B01422C0
:100B5800002102A801F0E2FC0D4B22689A4201D064
:100B680008B010BD01230B4AA020516BC0051943E2
:100B78005163526B02A9134001934022019B022347
:100B8800029203930523069300F0FAF8E8E7C046BB
:100B98000044014000100240FEE7C046FEE7C046A0
:100BA8007047C0467047C04610B500F087F810BDC2
:100BB80010B5024801F082FA10BDC0462800002096
:100BC8000123094A10B511690B420BD00221802478
:100BD800494211610549640248690204224083437D
:100BE80013438B6110BDC04600480140000400500B
:100BF8007047C0460D488546FFF7FAFF0C480D4977
:100C08000D4A002302E0D458C4500433C4188C425F
:100C1800F9D30A4A0A4C002301E013600432A242C5
:100C2800FBD301F083FCFFF701FDFEE70020002065
:100C3800000000200C000020742600080C00002092
:100C480034010020FEE7000070B50F4B040019784E
:100C5800002901D1012070BDFA208000FFF74CFA6D
:100C68000A4D01002868FFF747FA00F06FF80028DE
:100C7800F0D1032CEED801380022210000F030F822
:100C8800034B00201C60E6E7040000200000002061
:100C9800080000208023084A5B00116810B50B4348
:100CA80003201360FFF7D0FF041E02D001242000A8
:100CB80010BDFFF7C5FEFAE700200240034A044BC7
:100CC80011681B785B1813607047C046300100201C
:100CD80004000020014B18687047C046300100200E
:100CE800FF22032310B514000340DB009C40890158
:100CF8000A40E4439A4000280BDB0C4BC0219C4679
:100D080080088000604489004358234013434350BF
:100D180010BD0F23064903408C46083B9B089B00E7
:100D28006344D9690C401443DC61F1E700E100E059
:100D380000ED00E0002805DB1F220123024093405C
:100D4800014A13607047C04600E100E08022431E5C
:100D58005204012093420ED2C021074A074853602B
:100D6800036A09061B021B0A0B43036200230020C7
:100D7800936007331360704710E000E000ED00E077
:100D8800F0B5DE4657464E464546E0B50C688B46FC
:100D9800002383B0002C68D001229A409446224058
:100DA8009246624614425CD003215A465F00B9401D
:100DB80055680322C9432A40561E0091012E5BD96B
:100DC800032A00D0ADE0BA400668009931400A43D2
:100DD8000260C0229202154243D003270F265D49C4
:100DE8001F408C46FF00BE409A0892006244116E74
:100DF800B143A026F605B0420ED0574EB04200D1FE
:100E0800A0E0564EB04200D1A0E0554EB04200D10D
:100E180094E00526BE4031438026116651464D4A6E
:100E28007603C9431268354200D077E00A40494E3C
:100E3800326072688026B60335426CD10A40454E4E
:100E480072608422B258AF0362D40A408427414EAC
:100E5800F2518022B258ED0356D40A4080213D4D0C
:100E68006A5022000133DA4096D103B0F0BCBB4689
:100E7800B246A946A046F0BD81680E0000990E4012
:100E88005946C968B1460E00BE40B0464E46414676
:100E98000E43866041680E0061468E432909B046BC
:100EA8000E0001210E409E40B446464661460E4360
:100EB8004660C1680E0000990E4059468968B046E0
:100EC8000E00BE40B446464661460E43C660022A3E
:100ED80000D078E7D90889008C46844461460E6AB8
:100EE800072119408900884601960F214646B140DE
:100EF800019E8E435946019646460969B140019EB6
:100F08000E4361460E625EE7514611430A00A5E7AB
:100F1800564632439AE75646324390E7564632439E
:100F280085E70E00C1683140884659468968B9404E
:100F38008C46414666463143C16044E70326BE40BD
:100F4800314369E70126BE40314365E70226BE40CA
:100F5800314361E7001802400004005000080050C7
:100F6800000C005070B5134C134A23680025134039
:100F78000343236080239B00984201D0280070BD62
:100F88000E4B0F491B685800C0184000FFF7B4F813
:100F980080226369D2000130134202D1EEE70028B3
:100FA80005D0636901381342F9D10025E6E7032526
:100FB800E4E7C04600700040FFF9FFFF0000002092
:100FC80040420F00F0B5CE46474680B5040083B0D6
:100FD800002827D00368DA0711D53822C049886865
:100FE800C9680240102A00D1CCE0082A00D0CDE020
:100FF800BB4A1268920302D56268002A12D09A0787
:1010080032D53823B64A91680B40D168102B00D1ED
:101018000BE1002B00D00DE113685B0508D5E368F0
:10102800002B05D1012003B0C0BCB946B046F0BDC5
:1010380051686369AB481B0201400B435360A84ADF
:10104800A94913680B4021690B4313601368A74A29
:101058009B045B0FDA40A6490A60A64B1868FFF7A5
:10106800F3FD0028DED123681A076DD45B0745D548
:1010780038239B4A91680B40202B00D1CCE0802379
:101088000020D16B5B058146194208D1D16B194309
:10109800D163D26B13400193019B012399468027AA
:1010A800954E7F0033683B4200D1FFE0A368012BD7
:1010B80000D1E5E0052B00D1C8E10121884EF26D91
:1010C8008A43F265F26D03318A43F265002B00D042
:1010D800DAE0FFF7FFFD022307009846874D05E099
:1010E800FFF7F8FDC01BA84200D9EEE04246F36DB9
:1010F8001A42F5D14B46012B00D163E1E369002B7D
:1011080020D03822764DA9680A40102A00D11DE166
:10111800022B00D15CE12B68794A802613402B60B2
:10112800FFF7D8FDB604040005E0FFF7D3FD001B68
:10113800022800D9C9E02B683342F6D1EB68714A1E
:101148001340EB6000206EE73822654DA9680A401D
:10115800182A43D0A369002B00D1B8E001222B6ED6
:10116800022713432B66FFF7B5FD060005E0FFF7DE
:10117800B1FD801B022800D9A7E02B6E1F42F6D0D4
:10118800236873E7C943890700D131E78022636880
:10119800520293422BD0A021C9028B4200D1FCE01D
:1011A8004F4D59492A680A402A602A6857490A4017
:1011B8002A60002B1FD1FFF78DFD80270600BF0294
:1011C80004E0FFF787FD801B64287ED82B683B422C
:1011D800F7D123689A0700D446E712E72A6E9207E8
:1011E80000D443E7A269002A00D03FE71AE73C4A47
:1011F80011680B431360FFF76DFD80260500384F1B
:10120800B60204E0FFF766FD401B64285DD83B6822
:101218003342F7D02368DDE7D36D9B0700D46DE731
:10122800A368002B00D069E7FCE60D3B0B40022BBE
:1012380000D1BCE0E3682A4D002B73D02B682A4A02
:10124800802713402269FF0013432B6080232A68FC
:101258005B0013432B60FFF73DFD060004E0FFF73A
:1012680039FD801B022830D82B683B42F7D06A68CA
:1012780063691C491B020A4013436B602368F3E649
:101288001749CA6D1343CB65FFF724FD144B0600BD
:1012980098460227194D04E0FFF71CFD801BA84261
:1012A80013D84346DB6D1F42F6D023E733683B4330
:1012B8003360FFF70FFD050033683B4200D0F5E6C9
:1012C800FFF708FD401B0228F6D90320ABE60122F0
:1012D8002B6E022793432B66FFF7FCFC06001CE0ED
:1012E80000100240FF80FFFFFFC7FFFF0024F4004B
:1012F8000000002008000020007000408813000053
:10130800FFFFFFFEFCFFFEEFFFFFFEFFFFFFFBFFFF
:10131800FFF7E0FC801B0228D7D82B6E1F42F7D1BD
:101328002368A3E62B68504A802713402B60FFF7F9
:10133800D1FCFF00060004E0FFF7CCFC801B02286C
:10134800C3D82B683B42F7D123688DE6012B00D127
:1013580068E60322E868216A02408A4200D061E612
:101368007022616A02408A4200D05BE6FE21A26ACE
:10137800C90101401202914200D053E6F822E16A05
:10138800920302408A4200D04CE6236B400F40078C
:10139800C01A431E9841C0B245E68021334BC902AA
:1013A80018680143196019680A431A6023E713682B
:1013B8005B0555D4516863692D481B0201400B43F6
:1013C80053604AE6294A2B49D36B0B40D36395E611
:1013D8002B68294A802713402B60FFF77BFCBF044A
:1013E800060005E0FFF776FC801B022800D96CE7B1
:1013F8002B683B42F6D1616A236AEA680B431F49AE
:101408001A4E0A401343E26A1343226B1343A26A3B
:1014180012021343EB6080232A685B0413432B609A
:101428008023EA685B051343EB60FFF753FC8025D4
:101438000400AD0405E0FFF74DFC001B022800D9AD
:1014480043E733682B42F6D00020ECE50421074B34
:10145800DA6D0A43DA65DA6D03390A43DA6513E7A8
:10146800E368002BA6D1DDE5FFFEFFFF0010024078
:10147800FF80FFFFFFFFFFEFFFFFFFFE8C80C11F14
:1014880038231E4A10B591680B4205D113681C48D1
:101498009B045B0FD84010BD91681940082914D0EF
:1014A80091681940102912D091681940202921D03B
:1014B800906818401838431E9841124B4042184013
:1014C800FA23DB019C466044E5E70D48E3E7D3686F
:1014D800D1680B484906490F0131D468FEF70CFE64
:1014E800064B6404D968640E490F60430131FEF766
:1014F80003FED0E780200002CDE7C046001002407E
:101508000024F4000083FFFFF8B5CE4647460500E7
:101518000C0080B5002826D00722574E33681340A8
:101528008B425ED32B689A070ED55A0705D5E02261
:101538005249D201886802438A60504950488A68F3
:101548000240A86802438A60DB072BD56B684B4AC8
:10155800012B00D17CE0022B07D0002B00D07DE0CE
:101568001268520504D4012037E012689201FAD5B6
:101578000721424EB2688A431343B360FFF7AAFBC0
:10158800382398463F4B0700994604E0FFF7A2FB33
:10159800C01B48453BD84346B2681A406B68DB001D
:1015A8009A42F3D10722344E33681340A34238D805
:1015B8002B685B072DD4FFF763FF304B324A9B68DB
:1015C80032491B051B0F9B009B581F221340D84014
:1015D8002F4B08601868FFF737FBC0BCB946B04608
:1015E800F8BD336893430B433360FFF773FB07235E
:1015F8009846244B07009946424633681340A34255
:1016080000D18FE7FFF766FBC01B4845F4D90320DC
:10161800E3E71A4A1F4993680B40E9680B43936054
:10162800C9E73368934323433360FFF753FB07232A
:101638009846144B07009946424633681340A34224
:10164800B6D0FFF747FBC01B4845F5D90320C4E7D0
:101658001268920300D58BE70120BEE7032B05D063
:10166800D26D920700D583E70120B6E7126E920784
:1016780000D57DE70120B0E70020024000100240BD
:10168800FFF0FFFF881300009425000800000020E9
:1016980008000020FF8FFFFF70B5041E63D03D23B4
:1016A800C35CDAB2002B50D03D230222E2542368F7
:1016B800334E1A686168E068A569B34212D0314EAA
:1016C800B34247D0304EB34248D0304EB3420DD02B
:1016D8002F4EB34249D08026B2432A431A60D862BB
:1016E80099620FE07026B243A6683243294E324011
:1016F800266932438026B2432A431A60D862996227
:1017080062691A6301225A6119690A4202D0196989
:1017180091431961012348220020A3540A3AA35493
:101728000132A3540132A3540132A3540132A35409
:101738000132A3540132A3540132A3540132A354F9
:101748000132A3540A3AA35470BD3C33C254FFF784
:101758008FF9A9E77026B243A66832430D4E32408E
:1017680026693243B7E70120EEE70A4E3240266980
:1017780032438026B24315431D60D8629962BFE7A1
:10178800002C0140000400400020004000440140BB
:1017980000480140FFFCFFFF3D2110B5425C0300FB
:1017A800D4B20120012A0CD101325A541B680C4AC8
:1017B800934207D00B4A934204D01A6822431A6016
:1017C800002010BD9A6808490A40062AF8D007394F
:1017D8008A42F5D001211A6800200A431A60F0E70E
:1017E800002C014000040040070001003D2110B515
:1017F800425C0300D4B20120012A0FD101325A54AD
:101808001B68DA682243DA600C4A934207D00C4A14
:10181800934204D01A6822431A60002010BD9A68C7
:1018280008490A40062AF8D007398A42F5D001212A
:101838001A6800200A431A60F0E7C046002C0140ED
:1018480000040040070001007047C04670B5041E40
:1018580063D03D23C35CDAB2002B50D03D23022273
:10186800E2542368334E1A686168E068A569B34298
:1018780012D0314EB34247D0304EB34248D0304EEA
:10188800B3420DD02F4EB34249D08026B2432A43EB
:101898001A60D86299620FE07026B243A668324394
:1018A800294E3240266932438026B2432A431A60C1
:1018B800D862996262691A6301225A6119690A42F7
:1018C80002D0196991431961012348220020A354C9
:1018D8000A3AA3540132A3540132A3540132A35447
:1018E8000132A3540132A3540132A3540132A35448
:1018F8000132A3540132A3540A3AA35470BD3C33B5
:10190800C254FFF7A1FFA9E77026B243A668324385
:101918000D4E324026693243B7E70120EEE70A4E02
:101928003240266932438026B24315431D60D8628F
:101938009962BFE7002C01400004004000200040ED
:101948000044014000480140FFFCFFFF102903D874
:101958002A4A8B00D3589F464323C25C012A2AD1C6
:101968000222C2541F2211401E3A8A400368196A93
:1019780091431962196A0A431A62214A934236D07E
:10198800204A93422DD0204A93422AD01F4A93429C
:1019980007D19A681E490A40062A06D007398A42A2
:1019A80003D001211A680A431A60002070473E23B9
:1019B800C25C012AD4D00120F8E73F23C25C012A87
:1019C800CED0F8E74023C25C012AC9D0F3E741230F
:1019D800C25C012AC4D0EEE74223C25C012ABFD010
:1019E800E9E78022596C12020A435A64D9E7802237
:1019F800596C12020A435A64CBE7C046D425000842
:101A0800002C01400044014000480140000400400F
:101A18000700010030B51F2501240D40AC400368C4
:101A28001A6AA2431A621A6A1A62234A934214D0A3
:101A3800224A934211D0224A93420ED01C6A214A6C
:101A4800144203D11C6A204A14421FD0002911D124
:101A58003E230122C254002030BD1C6A194A144298
:101A6800ECD11C6A184A1442E8D15A6C174C22402F
:101A78005A64E3E704290ED0082914D00C290ED0A3
:101A8800102914D043230122C254E4E701241A6820
:101A9800A2431A60DAE73F230122C254DBE741235D
:101AA8000122C254D7E740230122C254D3E742237C
:101AB8000122C254CFE7C046002C01400044014037
:101AC800004801401111000044040000FF7FFFFF9F
:101AD80003003C20F0B51C5C012C00D16BE1012413
:101AE8001C54142A03D8B5489200825897460120FE
:101AF8003C2200219954F0BD1A68B14D146A106A4D
:101B080028401062AF4D5668506D28400D682D0270
:101B18000543AD480440886800052043AB4CA24209
:101B280000D118E1AA4CA24200D114E1A94CA2426A
:101B380000D110E14C6856605565D465106280206C
:101B4800546D000120435065506DA34C0969204035
:101B58005065506D0902014351650020C8E7012511
:101B68001A689E4E106A146AAC43146255689469E8
:101B780034400E6834430226B0438E683043934E97
:101B8800B24200D1DAE0924EB24200D1D6E0914E94
:101B9800B24200D1D2E0556094614C68096954633F
:101BA800082410629069204390619069043CA04326
:101BB8009061906901439161002099E710251A68A6
:101BC800106A146AAC431462854D566894692C40B7
:101BD8000D682D0225432024A0438C68240104436A
:101BE8007A48824200D1C2E07948824200D1C5E0F9
:101BF8007848824200D1C1E0486856609561906398
:101C08008020146294690001204390619069724CAD
:101C1800096920409061906909020143916100209F
:101C280066E71A686F4D106A146A6C4E2C4014628D
:101C38005568D46934400E6826436B4C20408C6844
:101C480024022043614CA24200D1A5E0604CA2428C
:101C580000D1A8E05F4CA24200D1A4E04C685560D6
:101C6800D661D46308241062D06909692043D06121
:101C7800D069043CA043D061D0690143D161002000
:101C880036E71A68594D146A106A28401062544D94
:101C98005668D06928400D682D0205435448044011
:101CA800886800032043494CA2426FD0484CA242A6
:101CB8006CD0484CA24269D04C685660D561146417
:101CC80010628020D46900012043D061D069424C61
:101CD80009692040D061D06909020143D16100201F
:101CE80006E71A68434D146A106A28401062424D8C
:101CF8005668506D28400D68054340480440886880
:101D080000042043314CA2422BD0314CA24228D0AF
:101D1800304CA24225D04C6856605565946508241D
:101D28001062506D096920435065506D043CA04312
:101D38005065506D014351650020D9E60826B0432F
:101D4800CE688F6930430426B0432D4E2E404D692E
:101D58003D4335431FE72B4C34404E69B6022643BA
:101D6800E8E6244C34404E6936022643D3E7802007
:101D78008443C868000104434020844322484F69D3
:101D880030408E693E43B600064335E71F4C344069
:101D98004E69B60126438FE71D4C2040CC682402CB
:101DA80004430D4820401B4C4F692C408D693D432E
:101DB8002D01254352E702209DE6C046182600085B
:101DC800FFFFEFFFFF8FFFFEFFFFDFFF002C01404B
:101DD8000044014000480140FFFBFFFF8CFFFEFF6D
:101DE800FF8CFFFEFFFEFFFFFFFDFFFFFFEFFFFF82
:101DF800FFDFFFFFFFFFFEFF8FFFFEFFFFFFFDFF7F
:101E0800FFFCFFFFFFFFFBFFFFF3FFFFFFBFFFFF2D
:101E1800FFF7FFFFFFCFFFFF3C2370B50200C05C58
:101E2800012800D173E001240220D4540133D05496
:101E38001068514D83682B4083600B68602B00D17C
:101E480067E01DD8402B00D17DE03FD9502B35D11C
:101E58004D68CB68016A066A1B01A6430662F02634
:101E68008469B44323430A24A1432943836101625B
:101E7800836842490B4057210B43836000201EE0D2
:101E880080246401A342F9D08024A401A3422BD169
:101E980084683B4B4D681C408B68C9682B4309021A
:101EA8000B432343836080238168DB010B438360FA
:101EB800002004E010211C008C430CD001203D239D
:101EC8000121D1540021013BD15470BD202B02D0F7
:101ED800F0D9302BF2D18168284C21400B430721DF
:101EE8000B4383600020EAE7702BE7D18468244B1A
:101EF8004D681C408B68C9682B4309020B43772146
:101F08002343836083680B4383600020D7E7022064
:101F1800DBE71026046A056A4B68B543C9680562A1
:101F28008569184E090335402943A0251B01AC4398
:101F3800234381610362836810490B4067210B4387
:101F480083600020BBE74D68CB68016A066A1B0105
:101F5800A6430662F0268469B44323430A24A143B6
:101F6800294383610162836804490B4047210B437D
:101F780083600020A3E7C0468800CEFF8FFFCFFF15
:101F8800FF00FFFFFF0FFFFF3C2370B5C25C012A73
:101F98004DD001250222C5540133C25404683E4B7A
:101FA800A2683E4E1A404B681A4332400E683243CC
:101FB800A260502B5FD00FD9602B3AD0702B0ED176
:101FC800A268374B8D681A40CB6809692B43090210
:101FD8000B431343A3600FE0402B3DD007D93D23AB
:101FE8000122C2540022013BC254012013E0202BDD
:101FF80002D011D9302BF2D14022E3689343E36039
:10200800E368284A1340E36001223D23C2540022BA
:10201800013BC254002070BD10229343ECD03D23F5
:102028000122C2540022013BC2540120F3E70220DE
:10203800F1E710268B680A69216A256A1203B543FD
:102048002562A569184E1B0135402A43A025A943DE
:102058000B43A2612362CFE7052EC0D0266A236A0C
:10206800AB432362F023A2699A430B691B01134314
:10207800A3612662C0E78A680B69216A266A1B0188
:10208800AE432662F026A569B5432B430A25A9432A
:102098000A43A3612262AFE78FFFCFFFF8FFFEFF7D
:1020A800FF00FFFFFFBFFFFFFF0FFFFF7047C046A6
:1020B8007047C0467047C0467047C0460222F8B510
:1020C80003680500DE681C69224201D0324262D1F1
:1020D8000423234201D0334249D10823234201D0AB
:1020E800334232D11023234201D0334219D1012384
:1020F800234201D033426AD1802782237F009B018B
:1021080027401C4256D0330669D44023234202D0CC
:10211800334200D073E02023234201D033424ED112
:10212800F8BD11222B6852421A6119322A77DA69EE
:10213800C0239B0028001A4272D1FFF7B7FF28007E
:10214800FFF7B8FF00232B77D1E709222B6852420B
:102158001A610D322A77DB6928009B075DD1FFF7EA
:10216800A5FF2800FFF7A6FF00232B77BAE7052273
:102178002B6852421A6107322A779A69C0239B005A
:1021880028001A4246D1FFF791FF2800FFF792FF77
:1021980000232B77A1E7053A1A61043202779B697D
:1021A8009B0734D1FFF782FF2800FFF783FF002346
:1021B8002B778DE7002FA8D03306A6D518E021226B
:1021C8002B68524228001A6100F0C6F8A8E70222DC
:1021D8002B68524228001A61FEF71AF88CE72B6820
:1021E800114A28001A6100F0B9F8002F00D18CE7D5
:1021F8002B680E4A28001A6100F0B2F885E74122E0
:102208002B68524228001A61FFF756FF83E7FFF751
:102218004FFFCCE7FFF74CFFBAE7FFF749FFA3E70B
:10222800FFF746FF8EE7C0467FDFFFFFFFFEFFFF99
:102238003C2370B5C35C012B26D03D230222C25437
:102248000268124D53680E689468AA420ED0702531
:10225800AB43334353600E4B9A420FD03D230122C8
:10226800C2540022013BC254002070BD094D2B40CE
:102278004D682B437025AB433343536080239C4305
:102288008B681C439460E9E70220EEE7002C0140CC
:1022980000040040FFFF0FFF3C2310B5C35C012B77
:1022A8003DD0204ACB68046813408A6813431E4A0D
:1022B80013404A6813431D4A13400A6813431C4AD3
:1022C80013400A6913431B4A13404A6913431A4AC5
:1022D80013400A6B1343194A13408A6912041343C3
:1022E800174A1340CA691343164A944205D06364D7
:1022F80000223C23C254002010BD134A13408A6AAE
:1023080012051A43114B1A400B6A1A43104B1A4014
:102318004B6A1A430F4B1A40CB6A1343E7E7022074
:10232800EAE7C046FFFCFFFFFFFBFFFFFFF7FFFFE9
:10233800FFEFFFFFFFDFFFFFFFBFFFFFFFFFF0FF24
:10234800FFFFFFEF002C0140FFFF0FFFFFFFFFFE25
:10235800FFFFFFFDFFFFFFDF7047C0467047C04625
:102368007047C046F0B54E46DE4657464546E0B58E
:102378000E680024002E13D15FE0C568A8464746C2
:102388000D691F4055433D43C5605B4605682B40BA
:1023980065466A431343036033000134E3404CD07D
:1023A80001233500A3401D401E42F5D02A006A4390
:1023B8004B6801279C4653009B18DB437F426744C8
:1023C8009B46012FD9D88768B9468F685743B846C6
:1023D8004F461F40B94647464B461F4387604368F0
:1023E8001F00CB68AF43B8461F006F43B946474646
:1023F8004B461F434760C36899460B691F00574304
:102408005B46B8464F461F40B94647464B461F43B2
:102418006346C760022BB8D14B699846FF2D13D885
:102428001300534399464F46056A1B01DB1B9D4326
:1024380043467B431D430562A7E70020F0BCBB462B
:10244800B246A946A046F0BD2D0A6D436D43436AC6
:1024580099462B015B1B9A464B465746BB43994608
:1024680043466B431D004B461D4345628DE7C046FE
:10247800194A30B503688D680C88904226D0174AEF
:10248800904212D0164A904213D0164A904202D077
:10249800154A904211D1154A1340CA681343036084
:1024A800C56284620B6903630AE0702293434A6839
:1024B80013430E4A1340CA6813430360C56284621B
:1024C8000122436913434361002030BD70229343C6
:1024D8004A681343DFE7C046002C0140000400406F
:1024E800002000400044014000480140FFFCFFFF7D
:1024F800094A82B013680193019B431C591E8B4102
:102508008021C018490213680B42FCD0013800280A
:10251800F9D102B07047C04610E000E0030082180D
:10252800934200D1704719700133F9E770B500265E
:102538000C4C0D4D641BA410A64209D1002600F0D6
:1025480019F80A4C0A4D641BA410A64205D170BDA7
:10255800B300EB5898470136EEE7B300EB589847BD
:102568000136F2E76C2600086C2600087026000881
:102578006C260008F8B5C046F8BC08BC9E467047F3
:0C258800F8B5C046F8BC08BC9E46704781
:102594000000000000000000000000000000000037
:1025A4000000000000000000000000000000000027
:1025B400010000000200000003000000040000000D
:1025C40006000000070000000800000009000000E9
:1025D400B61900086019000860190008601900089D
:1025E400C219000860190008601900086019000881
:1025F400CC19000860190008601900086019000867
:10260400D61900086019000860190008601900084C
:10261400E0190008661B0008F61A0008F61A0008FC
:10262400F61A0008C41B0008F61A0008F61A000877
:10263400F61A00082A1C0008F61A0008F61A000800
:10264400F61A00088A1C0008F61A0008F61A000890
:10265400F61A0008EA1C0008F61A0008F61A000820
:08266400F61A0008001B000833
:04266C00E100000881
:04267000B9000008A5
:0C2674000024F40001000000040000003D
:0400000508000BFDE7
:00000001FF
